:100000000C9434000C9451000C9451000C94510049
:100010000C9451000C9451000C9451000C9451001C
:100020000C9451000C9451000C9451000C9451000C
:100030000C9451000C9451000C9451000C949C00B1
:100040000C9451000C9451000C9451000C945100EC
:100050000C9451000C9451000C9451000C945100DC
:100060000C9451000C94510011241FBECFEFD8E026
:10007000DEBFCDBF11E0A0E0B1E0E2EAF1E002C0F6
:1000800005900D92A030B107D9F721E0A0E0B1E0D2
:1000900001C01D92A130B207E1F70E94AD000C949F
:1000A000CF000C94000087E884B98CE387B98EEF09
:1000B0008AB9089584B5826084BD85B5846085BDA4
:1000C000EEE6F0E080818460808316BC8BE988BD19
:1000D0000895E0E8F0E0808182688083E1E8F0E064
:1000E0008081896180838FE193E090938700809382
:1000F00086000895E0ECF0E0908195FFFDCF8093BD
:10010000C60008959093C5008093C40088ED809345
:10011000C10086E08093C2000895ECE7F0E08081A2
:1001200080648083EAE7F0E080818F6E8083EBE774
:10013000F0E08081808308951F920F920FB60F9296
:1001400011248F93809100018F5F809300018F9124
:100150000F900FBE0F901F9018950E9453000E94A1
:100160005A0083E090E00E9482000E9469000E9491
:100170008D0078945A985B985C985D98459844985F
:10018000439A429A5E9A289A5F9A80910001843637
:10019000E1F786E40E947A0010920001F6CFF8940D
:0201A000FFCF8F
:00000001FF
